:020000040800F2
:100000001808002001010008D93000082D28000838
:1000100045300008990B0008ED370008000000008B
:100020000000000000000000000000004134000853
:10003000D30B000800000000DB3000084334000848
:100040001B0100081B0100081B0100081B01000820
:100050001B0100081B0100081B0100081B01000810
:100060001B0100081B0100081B0100089D0B000874
:100070001B0100081B0100081B0100081B010008F0
:100080001B0100081B0100081B0100081B010008E0
:100090001B0100081B0100081B0100081B010008D0
:1000A0001B0100081B0100081B0100081B010008C0
:1000B000F13400081B0100081B0100081B010008A7
:1000C0001B0100081B0100081B0100081B010008A0
:1000D0001B0100081B0100081B0100081B01000890
:1000E0001B0100081B0100081B010008DFF80CD0F1
:1000F00000F07CFC00480047114800081808002068
:100100000648804706480047FEE7FEE7FEE7FEE7B1
:10011000FEE7FEE7FEE7FEE7FEE7FEE7A93400089C
:10012000ED000008202A04DB203A21FA02F0002129
:10013000704721FA02F3D040C2F1200291400843F7
:1001400019467047D2B201E000F8012B491EFBD2DC
:1001500070470022F6E710B513460A4604461946D2
:10016000FFF7F0FF204610BDF0B480EA0102D40F83
:100170004200B2EB410F02D20246084611464A0045
:1001800042D0C30DDDB2C1F3C752AD1A202D35DA0E
:10019000C1F3160141F4000204B15242C5F1200638
:1001A00002FA06F12A411044B3EBD05F23D0C4B168
:1001B000012DA0EBC35009DCF0BC4FF0004202EA75
:1001C000C352DBB200F5000000F034BB400000F188
:1001D000807000EBC350A0F1807040EAD1704900FC
:1001E00009E0490841EAC071A0EBC35000F50000E6
:1001F000400800EBC350F0BC00F013BB6142012289
:1002000002EB4101001BF6E7F0BC704781F00041B2
:10021000AAE780F00040A7E780EA010210B502F0EB
:100220000043400022D04A001FD0010E01EB1261B2
:10023000C0F35600C2F3560240F4000042F400023C
:10024000A0FB022000047F39140400D0401C50EAB7
:10025000124001D44000491EC2B20C0604EBD0107B
:10026000401C4008802A02D003E0002010BD20F08E
:100270000100002900DA0020184310BD30B480EAE4
:10028000010202F0004530F0004221F0004013D09E
:1002900090B1C30DD40DC2F31601C0F31600E41AD9
:1002A00041F4000140F400027D34914201D3641C0A
:1002B00000E04900002C02DA30BC002070474FF407
:1002C00000000023914201D3891A034340084FEAFA
:1002D0004101F7D151B1914202D14FF0004105E007
:1002E00002D24FF0010101E06FF0010103EBC450B5
:1002F000284430BC00F095BA420005D0C0F3C75284
:100300005242914201DC0020704700EBC15070471F
:100310002DE9FE4F804681EA0300C00F0C46009095
:1003200021F0004123F00045B8EB0200A94105D2BD
:100330004046214690461C460B46024623F00040AC
:10034000104347D0270DC7F30A00C3F30A510290A8
:10035000401A019040286BDAC3F3130040F4801B6D
:100360000098924620B10023D2EB030A63EB0B0BFB
:1003700001985946C0F14002504600F031FA064655
:100380000D4650465946019A00F039FA10EB080024
:100390006141002487EA115284EAE7731A4340D08E
:1003A000009A62B3019A012A4FEA075215DC001B3A
:1003B00061EB02014FF0004202EA0752CDE9004230
:1003C000001C41F5801132462B4600F070FA03B054
:1003D000BDE8F08F40462146F9E7001B61EB0201C2
:1003E000001C41F5801300185B412018A2F500178E
:1003F00047EB030140EAD570B6196D4111E06D0875
:100400004FEA360645EAC0754FEA0752001B61EB1A
:100410000201001C41F5801149084FEA3000001923
:10042000514132462B4603B0BDE8F04F00F030BAE0
:100430000098012240000023D0EB020263EBE0733E
:10044000009821464FEAE074B8EB000061EB04012C
:10045000E9E783F000435BE781F0004158E72DE9CD
:10046000FE4F81EA030404F0004421F000410094AF
:100470004FF0000B23F0004350EA01045ED052EA33
:1004800003045BD0C3F30A54C1F30A552C44A4F20D
:10049000F3340194A0FB0254C1F3130141F4801121
:1004A000C3F3130343F4801301FB024400FB034E28
:1004B000840A970A44EA815447EA8357A4FB0768F1
:1004C00002958D0A05FB07854FEA932C04FB0C541B
:1004D0002705029D4FEA065847EA1637B5EB08058F
:1004E0006EEB070C870E920E47EA811742EA8312E1
:1004F000A7FB0201B6EB0B0164EB00042B0D43EAF2
:100500000C335E1844EB1C50DA465146E7FB0201FF
:10051000C5F313044FEA0B3343EA14534FEA043292
:10052000019C43EA0603A4F10C040294009CCDE96B
:1005300000B400F0BCF903B0BDE8F08F0020014624
:10054000F9E72DE9F04D81EA030404F0004B21F0B6
:10055000004514464FF0000A23F0004150EA05021E
:1005600020D054EA01021DD0C5F30A570246C5F354
:100570001303C1F31300C1F30A5640F4801543F48A
:100580008013A7EB0608101BD64608F2FD3873EB64
:10059000050002D308F1010801E092185B41B8F1AF
:1005A000000F03DA00200146BDE8F08D00204FF473
:1005B0008011064684460EE0171B73EB050705D332
:1005C000121B63EB050306434CEA010C49084FEA92
:1005D000300092185B4150EA0107EDD152EA030066
:1005E00012D082EA040083EA0501084305D0101BFB
:1005F000AB4106D20122002306E000224FF0004367
:1006000002E06FF0010253101AEB06004CEB0851A8
:1006100010EB0A0041EB0B01BDE8F04D00F038B9DA
:1006200070B521F0004303430CD0C1F30A550024F8
:10063000D5EB040564EB0403D617AD1AB34102DB16
:100640000020014670BD201841EB025170BD0EB56F
:10065000C10F80EAE0700844CA07002140F233432A
:100660008DE80E000A460B4600F021F903B000BDEC
:100670000EB540F2334102910021CDE900110A4646
:100680000B4600F014F903B000BD20F00040C10D8E
:10069000C0F3160040F400007F2901DA0020704703
:1006A000962903DCC1F19601C8407047963988400D
:1006B000704770B5C1F30A5201F000450024C1F340
:1006C000130140F2FF3341F480119A4201DA002015
:1006D00070BD40F233439A42A2F2334203DC5242ED
:1006E000FFF720FD00E090402C43F1D0404270BD68
:1006F000C1F30A5210B5C1F3130140F2FF3341F4C4
:1007000080119A4201DA002010BD40F233439A4230
:10071000A2F2334203DC5242FFF704FD10BD9040C9
:1007200010BD00F0004230F000400AD0C10D01F5CC
:100730006071C0F3160042EA0151C208400711433C
:10074000704700200146704730B5041E71F1000467
:1007500004DB4FF00044404264EB0101141E73F1CE
:10076000000405DB1C464FF00043524263EB0403D8
:100770008B4208BF824230BD30B5041E71F10004C7
:1007800004DB4FF00044404264EB0101141E73F19E
:10079000000405DB1C464FF00043524263EB0403A8
:1007A000994208BF904230BD01F0004330B421F0BF
:1007B000004150EA010206D00A0DA2F56072C1F3B1
:1007C0001301002A02DC30BC00207047440F44EAC9
:1007D000C104C100E01830BC00EBC25000F021B8E9
:1007E000202A04DB203A00FA02F1002070479140F1
:1007F000C2F1200320FA03F3194390407047202AE6
:1008000006DBCB17203A41FA02F043EAE07306E038
:1008100041FA02F3D040C2F1200291400843194648
:1008200070470029A8BF7047401C490008BF20F04E
:100830000100704710B4B0FA80FC00FA0CF050EAE6
:10084000010404BF10BC704749B1CCF1200421FA67
:1008500004F411FA0CF118BF012121430843A3EB62
:100860000C01CB1D4FEA00614FEA102042BF00206F
:1008700010BC704700EBC35010440029A4BF10BC4B
:100880007047401C490008BF20F0010010BC7047B1
:1008900010B5141E73F1000408DA401C41F1000188
:1008A00092185B411A4301D120F0010010BD2DE9DF
:1008B000F04D92469B4611B1B1FA81F202E0B0FAD6
:1008C00080F220329046FFF78BFF04460F4640EA45
:1008D0000A0041EA0B0153465A46084313D0114619
:1008E00053EA010019D0C8F140025046FFF71AFC44
:1008F00005460E46504659464246FFF771FF0843EB
:1009000005D0012004E020463946BDE8F08D0020E6
:10091000054346EAE0762C4337430A986305E40A28
:10092000A0EB08000022FD0A44EA47540A3002D531
:1009300000200146E9E7010510196941DDE9084594
:1009400000196941BDE8F04DA2E72DE9F04D002303
:100950001A461B1A8A4103DB00200146BDE8F08DD0
:10096000C1F30A52C1F3130141F480154FF0000B9B
:10097000D10702D100186D41521E0027044640F2F3
:10098000FF11384601EB620A3E46804602460020CF
:100990004FF48011FFF7C6FBC2197141BB1846EB3B
:1009A0000100B4EB030C75EB000C04D3E41A65EB07
:1009B000000517460E46241908F101006D418046D6
:1009C0003428E3DDF91946EB0600091BA84103D2E0
:1009D0004FF0FF32134601E0002213461BEB0700E5
:1009E00046EB0A51BDE8F04DFFF752BF064C074DEC
:1009F00006E0E06840F0010394E8070098471034EF
:100A0000AC42F6D3FFF776FB0052000820520008F4
:100A100070B58C1810F8015B15F0070301D110F8C0
:100A2000013B2A1106D110F8012B03E010F8016BED
:100A300001F8016B5B1EF9D12B0705D40023521E70
:100A40000DD401F8013BFAE710F8013BCB1A921CD8
:100A500003E013F8015B01F8015B521EF9D5A142D6
:100A6000D8D3002070BD000070B5044600688168CE
:100A7000C943C9071CD1816821F00101816000F0E0
:100A800003FD05460FE000BF00F0FEFC401B0228FE
:100A900009D9A06A40F01000A062E06A40F00100AD
:100AA000E062012070BD20688068C043C007EBD0C1
:100AB000002070BD10B50146406A826A12F0500FE6
:100AC00005D0006A026BBDE8104008461047816AF5
:100AD00041F40071816201688968C1F342410729CC
:100AE0000CD1017B51B9816A21F480718162816AE4
:100AF000C90403D4816A41F00101816200F0EAF87F
:100B000010BD10B5406A816A41F040018162C16A3E
:100B100041F00401C16200F0DFF810BD10B5406A79
:100B200000F0D9F810BD0000F8B500260446009684
:100B300000688168C943C90728D0816841F0010174
:100B40008160134813490068B0FBF1F000E0401EDB
:100B500000900028FBD100F097FC054611E000BF93
:100B600000F092FC401B02280BD9A06A40F0100054
:100B7000A062E06A40F00100E06284F82460012095
:100B8000F8BD20688068C043C007E9D10020F8BDE7
:100B90000802002040420F00FEE70000014800F07C
:100BA00057BA0000D003002030B590F8405001241F
:100BB000AC40C56B6C60046863604368102B0368CD
:100BC00003D099600068C26030BD9A600068C1605F
:100BD00030BD704770470000F8B50024009490F8CD
:100BE00024202546012A12D0012280F824204A68B8
:100BF0001F23072A0DD20668776B521E02EB820272
:100C000093409F430B6893401F43776319E0022092
:100C1000F8BD06680D2A0AD2376BD21F02EB82029A
:100C200093409F430B6893401F43376309E0F76A83
:100C30000D3A02EB820293409F430B6893401F439F
:100C4000F7620A68072306680A2A0AD3F7680A3A8D
:100C500002EB420293409F438B6893401F43F7602F
:100C600008E0376902EB420293409F438B68934050
:100C70001F4337610A68102A01D0112A20D1124B74
:100C800002689A4217D193681B0219D4936843F4FF
:100C9000000393600968102912D10C490C4A0968B5
:100CA000B1FBF2F101EB8101490000E0491E009126
:100CB0000029FBD104E0816A41F020018162012416
:100CC00080F824502046F8BD00240140080200208E
:100CD00040420F0070477047704700002DE9F04117
:100CE0004FF0000704003D467ED0A06A002628B9D8
:100CF000E66284F82460204600F07EF82046FFF784
:100D0000B3FEA16AC90600D420B1A06A40F0100069
:100D1000A06269E0A16A21F4885141F00201A16258
:100D20006268E169237B0A4347EA43010A43A168F9
:100D30004FF48077B94209D0012907D05FF0000154
:100D400094F814C0BCF1010F02D00AE03946F7E76D
:100D5000F3B1A36A43F02003A362E36A43F0010303
:100D6000E3622368D3F804C02CF4694C4CEA010C0C
:100D7000C3F804C021688B68DFF870C003EA0C0375
:100D800013438B60A168B9420BD0012909D00CE054
:100D9000DFF85CC0A3690CEB43330B4343F4006101
:100DA000DFE7218A0D05A5F580152168CB6A23F4BC
:100DB00070032B43CB62216889680E4B1940914226
:100DC00008D1E662A16A21F0020141F00101A162AD
:100DD000BDE8F081A06A20F0020040F01000A0629F
:100DE000E06A40F00100E0620120F1E7FDF7E1FF79
:100DF00000E0FFFFFE0E1FFF70B586B0002506461F
:100E000000950195029503950068194988422DD1F6
:100E10001849886940F400708861886900F400709E
:100E20000490886940F0040088618869694600F090
:100E3000040004900320009001900F4800F02AFA6B
:100E40000F4C0E48C4E900058020C4E90250800020
:100E50002061800060612020C4E90605204600F082
:100E6000A1F908B1FFF7B6FE3462666206B070BD44
:100E70000024014000100240000801400800024028
:100E8000D003002070B5044690F8240001280DD04E
:100E9000012084F824002046FFF746FE02004FF0B0
:100EA000000005D084F82400104670BD022070BDFB
:100EB000A16A40F20123994341F48071A1621F4D60
:100EC00023681F49AB4218D10E6816F4702F14D056
:100ED000A66A46F48016A6620E68760505D5A66A4F
:100EE00026F4005646F48056A662A66AF6040AD591
:100EF000E66A26F00606E66206E0A66A26F4801692
:100F0000A6625E68E9E7E06284F824006FF0020000
:100F1000186020688368C3F34243072B05D1A842B9
:100F200008D1096811F4702F04D0816841F4801150
:100F30008160B9E7816841F4A001F9E70028014028
:100F4000042401402DE9F047894604463B490068E6
:100F50003B4F0E1D9046884201D0B84207D1306801
:100F600010F4702F03D001252846BDE8F08794F8CF
:100F7000240001280CD0012084F824002046FFF72B
:100F8000D3FD05004FF0000004D084F82400EBE707
:100F90000220EAE7A16A40F60162914341F48071C0
:100FA000A1622168B94218D1326812F4702F14D0AE
:100FB000A16A41F48011A1623168490505D5A16A91
:100FC00021F4005141F48051A162A16AC9040AD5FB
:100FD000E16A21F00601E16206E0A26A22F48012D1
:100FE000A2624968E9E7E06284F82400216A1548B2
:100FF0008862216A1448C862216A1448086321681B
:101000006FF0020008602068816841F4807181609F
:10101000216843464A464C31206A00F0F1F82068C6
:101020008168C1F342410729816803D041F48011EE
:10103000816099E741F4A001FAE700000024014033
:1010400000280140B50A00081D0B0008030B00082A
:101050002DE9F05FC16B0C6801680B68D0F840C0E7
:10106000042202FA0CF2494DDFF824A1494E4A4FFE
:10107000DFF828B1DFF828E122422CD05A072AD520
:101080000A68920603D40A6822F004020A60016822
:10109000A94201D1042219E0514501D1402215E0B5
:1010A000B14202D14FF4806210E0B94202D14FF454
:1010B00080420BE0594502D14FF4802206E0714591
:1010C00002D14FF4800201E04FF080622F490839CD
:1010D0004A60C16A3BE04FF0020808FA0CF818EACF
:1010E000040F4FF000094FF0010235D05FEA83781A
:1010F00032D50B689B0605D40B6823F00A030B60FE
:1011000080F821200168A94201D1022219E051454D
:1011100001D1202215E0B14202D14FF4007210E05B
:10112000B94202D14FF400520BE0594502D14FF4BD
:10113000003206E0714502D14FF4001201E04FF099
:101140000072124908394A6080F82090816A0029AB
:101150001AD0BDE8F05F0847082505FA0CF52542CE
:1011600012D01B0710D50B6823F00E030B6090F80C
:101170004010C36B02FA01F15960826380F82120AC
:1011800080F82090016BE2E7BDE8F09F0800024084
:101190001C0002403000024044000240580002405F
:1011A0006C00024030B528B308C813491422194412
:1011B000B1FBF2F18900C1631049816302214177DB
:1011C0001A6843F6F0718A43D0E900142143D0E94C
:1011D00002452C4321430469214344692143846926
:1011E00021431143196000214163012242770177B5
:1011F000084630BD012030BDF8FFFDBF00000240B1
:1012000070B5044690F82000002501280CD001207C
:1012100084F8200094F821600020012E06D084F884
:1012200020000225284670BD022070BD022684F8E9
:101230002160A0632068066826F00106066020464B
:10124000FFF7B2FCE06A00282068016802D041F094
:101250000E0106E021F0040101602068016841F000
:101260000A0101602068016841F001010160D9E7CD
:1012700070B5044600F008F90546601C02D0044829
:101280000078044400F000F9401BA042FAD370BD7E
:10129000FC0100202DE9F84FDFF8B891002409F196
:1012A000040A0AF1040B23460F270BF1040EC9E0D0
:1012B0000125A5402A40AA427DD1674ED1F804C03D
:1012C000ACEB0608B44532D014DCBCF1030F3AD0C5
:1012D00009DCBCF1000F2AD0BCF1010F1CD0BCF11D
:1012E000020F31D11DE0BCF1110F17D0BCF1120F6C
:1012F0002AD119E0B8F5881F19D006DCB8F5803F6F
:1013000015D0B8F5801F1FD111E0B8F5001F0ED021
:10131000B8F5041F18D10AE0CB6815E0CB681B1D97
:1013200012E0CB6808330FE0CB680C330CE08B681D
:101330002BB1012B4FF0080303D0456104E00423D7
:1013400002E0056100E00023FF2A01D8064601E023
:1013500000F104064FEA840501D9A5F12005D6F86D
:10136000008007FA05FC28EA0C0803FA05F548EAAC
:101370000508C6F800804D68ED0062D5374DAE69AE
:1013800046F00106AE61AD6924F0030605F00105E3
:101390000095334D06EB050CDCF80850A607360F18
:1013A00007FA06F825EA0805DFF8B880404503D1BA
:1013B0004FF0000817E044E0DFF8AC80404502D170
:1013C0004FF001080FE0DFF8A480404502D14FF054
:1013D000020808E0DFF89880404502D14FF003088A
:1013E00001E04FF0040808FA06F848EA0508CCF8CE
:1013F00008804D68D9F80060ED034D4601D51643CD
:1014000000E096432E604D68DAF80060AD03554663
:1014100001D5164300E096432E604D68DBF800606E
:10142000ED025D4601D5164300E096432E604D68FF
:10143000DEF80060AD02754601D5164300E0964324
:101440002E60641C0D682A46E5407FF431AFBDE88C
:10145000F88F00000004014000001110001002404D
:101460000000014000080140000C01400010014054
:10147000001401408068084000D0012070470AB184
:10148000016170470904FBE701488068704700006C
:10149000FC01002070B504001BD094F83D0000252D
:1014A00020B984F83C50204600F0F6FA242084F855
:1014B0003D002068016821F00101016000F0BEFCE0
:1014C0004D4A6168914201D84C4900E04C4988423C
:1014D00001D2012070BD4B492368B0FBF1F15E6879
:1014E00026F03F060E435E606368934206D94FF4D0
:1014F000967359434FF47A73B1FBF3F12368491C97
:101500001E6A26F03F06314319626168914210D885
:101510004900401EB0FBF1F2521CC2F30B02042A38
:1015200001D2042022E0B0FBF1F0401CC0F30B001C
:101530001CE0A368F3B301EBC10202EB0116421EEB
:10154000B2FBF6F2521C42F48042120549D093B32A
:1015500001EBC10202EB0111401EB0FBF1F0401C97
:10156000C0F30B0040F4804040F400402168CA6999
:101570004CF6FF739A431043C861D4E9070108434E
:1015800021680A6822F0C00210430860D4E9030110
:1015900001432068826848F2FF339A431143816017
:1015A000D4E9050108432168CA6822F0FF0210430C
:1015B000C86001E00EE016E02068016841F001011A
:1015C00001602564202084F83D00256384F83E50A6
:1015D000002070BD01EB4106421EB2FBF6F2521C28
:1015E000B3E70120C2E701EB4101401EB0FBF1F07F
:1015F000401CC0F30B00B7E7A086010080841E00EA
:1016000000093D0040420F002DE9FF4F81B089469F
:101610000446FFF739FF054694F83D004FF00108F6
:1016200020287AD1192301224B492046009501F048
:10163000E9F9002871D194F83C0001286DD001200F
:1016400084F83C0020680168C90703D1016841F0B3
:10165000010101602068016821F40061016024201B
:1016600084F83D00002626643C48E0624FF0011BF0
:1016700020272068016841F48071016000950022F4
:1016800059462046049B01F0BDF9002856D1216837
:1016900009F0FE000861FFF7F7FE2168054648697A
:1016A0004969C0F34000C1F380214FF0A00A0FE068
:1016B000FFF7EAFE411B0498814200D808B984F87C
:1016C0003DA0216848694969C0F34000C1F3802109
:1016D00094F83D20A02A02D008B90029E8D084F867
:1016E0003D7020684169C943890717D4016841F4F6
:1016F000007101602068416980691923012216493F
:101700002046009501F07EF9C0B984F83D7084F858
:101710003C60002005B0BDE8F08F1BE0016841F49B
:101720000071016021686FF4806048611923012213
:1017300009492046009501F065F908B10120E9E763
:10174000039808F10108804593D384F83D7084F82C
:101750003C60F3E70220DDE7020010000000FFFF1D
:101760002DE9F84F1F4690468A460446DDF828903A
:10177000FFF78AFE054694F83D00202879D1192309
:10178000012277492046009501F03CF90028F5D167
:1017900094F83C0001286CD0012084F83C002068BB
:1017A0000168C90703D1016841F0010101602068A7
:1017B000016821F400610160222084F83D001020BE
:1017C00084F83E0000262664C4F824806785608D76
:1017D00020856448E0622B464A465146204601F087
:1017E0003DF800287ED1208D5F4F68B1012814D0CC
:1017F0000228206801681ED041F4806101602068E1
:101800004169806900909DE020684169816900918B
:10181000016841F40071016094E02068016821F4DE
:101820008061016072B62068416981690091016838
:1018300041F400710AE041F40061016072B6206871
:10184000416981690091016821F48061016062B69B
:1018500078E0032850D801280CD002284B464FF0DE
:1018600000023946204600950FD001F0CBF8C8BBE6
:1018700010E073E02A464946204601F042F988BB51
:1018800020680069616A087053E001F0BBF848BB4A
:1018900072B61AE02068016821F48061016072B6B6
:1018A00020680069616A0870606A401C6062208D6F
:1018B000401E2085608D401E60854B4600223946C3
:1018C0002046009501F09EF860B92068016841F457
:1018D0000071016020680069616A0870606A401CDC
:1018E000606200E00EE0218D491E2185618D491E58
:1018F000618562B621681AE02A464946204601F011
:1019000000F910B10120BDE8F88F20680069616A14
:101910000870606A401C6062218D491E2185618DBE
:10192000491E618521684A69D24352070AD4096970
:101930000170606A401C6062208D401E2085608DB1
:10194000401E6085208D002883D1202084F83D0032
:1019500084F83E6084F83C600020D4E70220D2E79F
:10196000020010000000FFFF040001002DE9F84F05
:101970001F4690468A460446DDF82890FFF784FD0E
:10198000054694F83D0020287FD1192301224049C3
:101990002046009501F036F8002876D194F83C00F6
:1019A000012872D0012084F83C0020680168C90732
:1019B00003D1016841F0010101602068016821F450
:1019C00000610160212084F83D00102084F83E0071
:1019D00000262664C4F824806785608D20852D4804
:1019E000E0622B464A465146204600F0A1FF90B9DE
:1019F000206841698069009036E02A4649462046C1
:101A000001F0B2F850B1206C042804D120680168BC
:101A100041F4007101600120BDE8F88F606A21681F
:101A200000780861606A401C6062618D491E6185B2
:101A3000218D491E89B2218522685369DB435B07EA
:101A40000BD451B100781061606A401C6062608DF7
:101A5000401E6085208D401E20852A46494620462E
:101A600000F0AAFF0028CED1208D0028C5D154F85F
:101A70003D0B016841F400710160202004F81E094B
:101A8000E67766770020C7E7FFE70220C4E700009B
:101A9000020010000000FFFF10B586B00021009189
:101AA00001910291039100680F4988421AD10F4CAD
:101AB000A06940F00800A061A069694600F0080034
:101AC0000490C02000901220019003200390084849
:101AD000FFF7E0FBE06940F40010E061E06900F42A
:101AE0000010049006B010BD0054004000100240E9
:101AF000000C0140024881680278114481607047FF
:101B0000FC010020074810B5016841F01001016098
:101B1000032000F075F8002000F006F800F024F82B
:101B2000002010BD0020024070B50D4D04464FF45A
:101B30007A712878B1FBF0F00A490968B1FBF0F03E
:101B400000F062FB48B9102C07D200222146501E3B
:101B500000F036F800206C6070BD012070BD000000
:101B6000FC010020080200200C4808B5816941F002
:101B700001018161816901F001010091C16941F0B8
:101B80008051C161C06900F08050009004484168F4
:101B900021F0E06141F00071416008BD0010024099
:101BA00000000140002809DB00F01F0201219140E4
:101BB0004009800000F1E020C0F8001170470000EB
:101BC000F0B40E4B1B680C46C3F30223C3F10705A8
:101BD000042D00D90425191D072901D2002300E096
:101BE000DB1E012606FA05F1491E214099409E4060
:101BF000761E16403143F0BC02F0B1BB0CED00E0A4
:101C0000064900F0070208684FF6FF03184040EA53
:101C10000220034A10430860704700000CED00E00A
:101C20000000FA052DE9F84305460078354CC00759
:101C300054D0E0690026C00008D4E06940F080502C
:101C4000E061E069012600F0805000902E480168B4
:101C5000C90512D40168804641F480710160FFF724
:101C600013FC074605E000BFFFF70EFCC01B64280D
:101C700023D8D8F80000C005F6D5206A10F44070CB
:101C800021D0A98801F4407181421CD0206A1F49EB
:101C9000012220F440700A6000220A602062C0071E
:101CA00011D0FFF7F1FB074641F2883808E000BF8A
:101CB000FFF7EAFBC11B414502D90320BDE8F883C9
:101CC000206A8007F4D5206A696820F440700843D0
:101CD00020621EB1E06920F08050E0612878800722
:101CE00005D56068A96820F4404008436060287802
:101CF000C00605D56068E96820F48000084360608C
:101D00000020DBE700100240007000404004424227
:101D10002DE9F0470F46050061D0434E306800F0D2
:101D20000700B84209D2306820F00700384330601D
:101D3000306800F00700B84251D128683B4C810759
:101D400012D5400703D5606840F4E06060602878F1
:101D5000000703D5606840F4605060606068A9685F
:101D600020F0F000084360602878C00728D0686839
:101D7000012810D02168022810D0890700292EDA06
:101D8000616821F0030101436160FFF77DFB80463C
:101D900041F288390DE021688903EFE78901EDE719
:101DA000FFF772FBA0EB0801494502D90320BDE80B
:101DB000F0876068696800F00C00B0EB810FEFD12C
:101DC000306800F00700B8420BD9306820F00700F7
:101DD00038433060306800F00700B84201D001207D
:101DE000E5E72878400705D56068E96820F4E060F9
:101DF000084360602878000706D56068296920F4E8
:101E0000605040EAC100606000F038F86168084A3C
:101E1000C1F30311515CC8400649086006480068D8
:101E2000FFF782FE0020C2E70020024000100240BF
:101E3000445100080802002000020020044805491F
:101E400000684968044AC1F30221515CC8407047E8
:101E500008020020001002405451000804480549BF
:101E600000684968044AC1F3C221515CC840704708
:101E700008020020001002405451000812A185B051
:101E80000FC98DE80F0014A0144A0068049051682F
:101E9000134801F00C03042B10D0082B0ED1C1F312
:101EA0008343C9031DF803000AD5516804AAC1F38E
:101EB0004041515C0A4A5043B0FBF1F005B0704715
:101EC00008494843FAE70000020304050607080929
:101ED0000A0B0C0D0E0F1010010200000010024042
:101EE00000127A0000093D002DE9F84F040070D07F
:101EF0002078C04DC00749D06868C0F38100012830
:101F000007D06868C0F38100022809D16868C0035F
:101F100006D52868800339D560680028E7D035E009
:101F20006068B0F5803F0BD010B1B0F5A02F11D094
:101F3000286820F480302860286820F4802002E09F
:101F4000286840F480302860606890B1FFF79CFA00
:101F500006460AE0286840F480202860F0E700BFC9
:101F6000FFF792FA801B642873D828688003F7D59E
:101F70000CE0FFF789FA064605E000BFFFF784FA98
:101F8000801B6428F0D828688003F7D420789A4E04
:101F900080074FF001094FF0000839D5686810F04C
:101FA0000C0F07D06868C0F38100022809D1686867
:101FB000C00306D42868800714D52069012808D1F9
:101FC00010E02069B0B1C6F80090FFF75DFA07464F
:101FD00005E00AE1FFF758FAC01B0228C4D82868B8
:101FE0008007F7D52868616920F0F80040EAC10051
:101FF00028600DE0C6F80080FFF746FA074604E0C7
:10200000FFF742FAC01B022823D828688007F7D4BC
:10201000207800072CD57948A169D9B1C0F8009083
:10202000FFF732FA074604E0FFF72EFAC01B02283A
:102030000FD8686A8007F7D571484FF4FA510068E5
:10204000B0FBF1F0009000BF0098411E0091FAD261
:102050000EE080E0C0F80080FFF716FA074604E0C3
:10206000FFF712FAC01B022875D8686A8007F7D4F8
:102070002078400760D5E8690027C00008D4E869E7
:1020800040F08050E861E869012700F0805000903E
:102090005C480168C90513D40168834641F4807126
:1020A0000160FFF7F1F9824606E000BFFFF7ECF9A7
:1020B000A0EB0A0064284ED8DBF80000C005F5D577
:1020C000E06801280AD008B1052813D0286A20F05A
:1020D00001002862286A20F0040002E0286A40F02B
:1020E00001002862E06841F2883B98B1FFF7CCF923
:1020F00082460BE0286A40F004002862EEE700BF49
:10210000FFF7C2F9A0EB0A0159455AD8286A80079F
:10211000F6D50CE0FFF7B8F9824605E0FFF7B4F911
:10212000A0EB0A0159454CD8286A8007F6D41FB1A4
:10213000E86920F08050E861E06988B36968C1F31C
:102140008101022944D00228C6F8608004D0FFF73C
:102150009BF9044638E034E0FFF796F9074604E0BF
:10216000FFF792F9C01B02282BD828688001F7D40A
:10217000206AB0F5803F05D16868A16820F400307E
:1021800008436860D4E908010843696821F47411C0
:1021900008436860C6F86090FFF776F9044606E0E9
:1021A00025E000BFFFF770F9001B022809D8286856
:1021B0008001F7D51BE000BFFFF766F9001B02287E
:1021C00002D90320BDE8F88F28688001F4D40EE01E
:1021D0000128F7D06868226A00F48031914204D166
:1021E000616A00F47010884201D00120EAE7002003
:1021F000E8E7000000100240000042428004424232
:10220000080200200070004010B5401EB0F1807F31
:1022100001D3012010BD4FF0E02460610F21601751
:1022200002F09DF80020A06107202061002010BD71
:102230007047704710B590F83C20012A22D0012247
:1022400080F83C20CA688C6822F4407222434C68B3
:1022500022F4806222430C6822F4006222430C695B
:1022600022F4805222434C6922F400522243C9696D
:10227000002322F480420A4301684A6480F83C301B
:10228000002010BD022010BD70B590F83C20012A3E
:1022900019D0012400F83C4F0222427050F83C3C17
:1022A0005A689D6822F070060A684968324325F032
:1022B000800529435A6050F83C2C916044700021FD
:1022C0000170084670BD022070BD10B5040003D037
:1022D00094F83D0010B107E0012010BD002084F803
:1022E0003C00204600F00CF8022084F83D00211D3F
:1022F000206801F003F9012084F83D00002010BDA2
:1023000008B5114A01681148914208D1816941F428
:1023100000618161806900F40060009008BDB1F146
:10232000804FFBD1C16941F00101C161C069002248
:1023300000F00100009011461C20FFF741FCBDE8B1
:1023400008401C20FFF72EBC002C0140001002406A
:102350000168CA6842F00102CA600068816801F041
:102360000701062903D0016841F001010160002046
:10237000704770B5044690F83C00012817D001253D
:1023800084F83C50022084F83D002068826822F0E6
:10239000770222F47F4282600868502830D00DDC3A
:1023A00020284DD005DC98B310283BD148E002200E
:1023B00070BD302844D0402834D139E0602828D07E
:1023C000702806D0B0F5805F2CD0B0F5005F29D121
:1023D0000AE0CB68D1E90121206801F0D2F8206839
:1023E000816841F0770109E0CB68D1E901212068DB
:1023F00001F0C7F82068816841F48041816011E0F4
:10240000CA684968206801F071F95021206807E026
:1024100016E0CA684968206801F079F960212068EF
:1024200001F0B9F884F83D50002084F83C0070BDFC
:10243000CA684968206801F059F940212068EFE72F
:10244000226801461046EBE7704770B50446006805
:1024500001694FF00005C943890715D4C168C94314
:10246000890711D4E91E0161012020772068806965
:102470008007204602D0FFF7E7FF04E000F0BEF837
:10248000204600F040F9257720680169C9434907D3
:1024900017D4C168C943490713D46FF0040101611F
:1024A000022020772068806910F4407F204602D007
:1024B000FFF7CAFF04E000F0A1F8204600F023F97E
:1024C000257720680169C943090716D4C168C94343
:1024D000090712D46FF008010161042020772068F9
:1024E000C0698007204602D0FFF7AEFF04E000F08D
:1024F00085F8204600F007F9257720680169C9436F
:10250000C90617D4C168C943C90613D46FF01001B6
:102510000161082020772068C06910F4407F2046C0
:1025200002D0FFF791FF04E000F068F8204600F0C9
:10253000EAF8257720680169C943C90708D1C1684D
:10254000C943C90704D1891E0161204600F0F8F88B
:1025500020680169C943090609D4C168C94309064D
:1025600005D46FF0800101612046FFF761FE20680D
:102570000169C943490609D4C168C943490605D45C
:102580006FF040010161204600F0E6F82068016923
:10259000C94389060BD4C168C943890607D46FF0C3
:1025A000200101612046BDE87040FFF742BE70BDCA
:1025B00000B585B00021009101910291039100685E
:1025C0000B49884212D10B48816941F004018161B5
:1025D0008069694600F0040004904FF44070009058
:1025E0000220019003900448FEF754FE05B000BDA0
:1025F000002C01400010024000080140704770B5F7
:10260000044690F83C000D4601280DD0012684F8C0
:102610003C60022084F83D0042B1042A18D0082A08
:102620002AD00C2A4DD139E0022070BD206800F07C
:10263000BBFF2068816941F00801816120688169E0
:1026400021F004018161206881692A69114311E048
:10265000206800F0D1FF2068816941F40061816148
:102660002068816921F480618161206881692A691B
:1026700041EA0221816124E0206800F0E9FF20683E
:10268000C16941F00801C1612068C16921F00401FC
:10269000C1612068C1692A69114311E0206801F015
:1026A00003F82068C16941F40061C1612068C16913
:1026B00021F48061C1612068C1692A6941EA02216F
:1026C000C16184F83D60002084F83C0070BD10B505
:1026D000040003D094F83D0010B107E0012010BDC4
:1026E000002084F83C00204600F00CF8022084F81A
:1026F0003D00211D206800F001FF012084F83D000D
:10270000002010BD7047704710B5044600680122D4
:1027100000F02AFF09492068884203D1416C41F446
:10272000004141642068816801F00701062903D057
:10273000016841F001010160002010BD002C014042
:102740000068B0F1804F03D102488169491C816162
:102750007047000000000020704770B5040004D0EE
:1027600094F83900002510B106E0012070BD84F80E
:102770003850204600F022F8242084F839002068E0
:10278000C16821F40051C160204600F0D3FF2068E9
:10279000016921F4904101612068416921F02A0119
:1027A00041612068C16841F40051C160E5632020A7
:1027B00084F8390084F83A00002070BD30B585B047
:1027C0000024009401940294039400681449884200
:1027D00024D11448C16941F48021C161C16901F467
:1027E00080210491816941F00801816180690E4D69
:1027F00000F0080004904FF48060009002200190E7
:102800000320039069462846FEF744FDE814CDE90D
:102810000004694628460294FEF73CFD05B030BD31
:102820000048004000100240000C0140FEE7016833
:102830004A69D24352050FD46FF480624A61002185
:1028400040F8301F202242738173026942F0040273
:102850000261017301207047002070472DE9F84F95
:102860000446C06A1E4692460D4621680A6842F434
:1028700080620A60082807D0012805D010F5803F43
:1028800002D0206B112804D12068016841F48071C6
:1028900001604FF001185346002241462046009641
:1028A00000F0B0F8F0BB206908F10109B0F5804FE5
:1028B0000FD00620216800EAD51747F0F000086124
:1028C0003346524608F10701204600F0CFF848BBD6
:1028D00003E0E8B240F001001BE02168E8B20861C3
:1028E000334652464946204600F0C0F8D0B9206829
:1028F000416981690091016841F48071016053462A
:10290000002241462046009600F07CF850B947F07E
:10291000F10021680861334652464946204600F0DE
:10292000A5F800E001E0002800D00120BDE8F88F04
:10293000F8B50446C06A1E460D461746082807D05B
:10294000012805D010F5803F02D0206B122804D159
:102950002068016841F480710160134600224FF045
:1029600001112046009600F04DF808BB2069B0F533
:10297000804F0ED00620216800EAD51040F0F0000C
:10298000086133463A460B49204600F06FF878B9A3
:1029900002E005F0FE0000E0E8B2216808610549A8
:1029A00033463A46891F204600F060F8002800D0E0
:1029B0000120F8BD0800010070B516460D4604461A
:1029C0000DE02046FFF733FF08B1012070BD681C01
:1029D00005D0FEF759FD801BA84207D835B1206805
:1029E0004069C0434007ECD4002070BD002044F88B
:1029F000300F20216173A073216941F02001216112
:102A00002073E2E72DE9F0471E4690460D46044646
:102A1000C1F30747DDF8209008E0701C06D0FEF7F0
:102A200033FDA0EB0900B0420FD876B12068012F2A
:102A300018D0806925EA00000004000C14D00021A1
:102A40004145EAD00020BDE8F087002044F8300F6F
:102A500020216173A073216941F02001216120735D
:102A60000120F0E74069E5E70121E9E72DE9F047BA
:102A70009A4691460E46044600254FF02008C1F3C1
:102A8000074725E020684069C043400514D420680A
:102A9000016841F40071016021686FF48060486151
:102AA000256384F83D8084F83E50206C40F004009B
:102AB000206484F83C501FE0B9F1FF3F08D0FEF7D6
:102AC000E3FCA0EB0A0149450CD8B9F1000F09D08D
:102AD0002068012F13D0806926EA00000004000C52
:102AE0000BD0CFE744F8305F84F80D80A5732069E0
:102AF00040F02000206125730120BDE8F087406987
:102B0000EAE72DE9F041002590460E4604462027CD
:102B100017E04069C043C0060CD454F8301B6FF076
:102B20001000486144F810596777A577206A206241
:102B3000257717E0FEF7A8FCA0EB0800B04208D804
:102B40003EB120684169C9434906E2D40020BDE88E
:102B5000F08144F8305F6773A573206940F020006E
:102B6000206125730120F2E770B516460D46044634
:102B70000DE02046FFF75BFE08B1012070BD681C28
:102B800005D0FEF781FC801BA84207D835B120682C
:102B90004069C0430006ECD4002070BD002044F81A
:102BA000300F20216173A073216941F02001216160
:102BB0002073E2E72DE9F74F8EB090460846FDF707
:102BC000B0FD5E4CD4E9162305930892FDF741FC55
:102BD000C4E9140105460F464046FDF7A2FD06462E
:102BE0002A463B460391FDF73AFCD4E91223FDF750
:102BF0008FFB534D81468A46EF6840463946FDF7C4
:102C00000BFB0D9069680491FDF700FBA968019129
:102C1000FDF7FCFAFDF785FDD4E90C23FDF778FB01
:102C200002460B4630460399FDF719FC80468B4659
:102C30002868FDF776FD42465B46FDF769FBFDF728
:102C4000B3FD834604990D98FDF7E3FA8046019998
:102C50000D98FDF7DEFA0190D4E90E233046039972
:102C6000FDF7FDFB064638460991FDF75AFD324651
:102C7000099BFDF74DFBFDF797FD09905846FDF7C1
:102C800050FDD4E91023FDF743FBFDF78DFD07460A
:102C900001465846FDF7F2FA064639460198FDF717
:102CA000EDFA07460E98FDF73CFD4A465346FDF700
:102CB000D0FBFDF779FD029030460299FDF7ACFAA2
:102CC000FDF72FFD4A465346FDF722FBC4E91201EA
:102CD0008246894638460299FDF79EFAFDF721FDA6
:102CE000059B089AFDF714FBC4E9160130465946C6
:102CF000FDF792FA5946FDF78CFA286030464146B6
:102D0000FDF78AFA4146FDF784FA6860384659466D
:102D1000FDF782FA0199FDF77CFAA8603846414632
:102D2000FDF77AFA0999FDF774FAE86011B0504698
:102D30004946BDE8F04FFDF737BD00000000002018
:102D4000700300202DE9F041384C394D4FF0010659
:102D5000E078A1784FF0000750EA010208D08143E3
:102D60002DD010212846FEF785FB012817D026E03C
:102D700010212846FEF77EFB012820D11E20FEF7F9
:102D800077FA10212846FEF775FB012817D110218C
:102D90002846FEF76FFB0128F9D0A6700FE01E2031
:102DA000FEF766FA10212846FEF764FB012806D1DB
:102DB00010212846FEF75EFB0128F9D0A770A07805
:102DC000E17850EA010219D0814315D0202128462C
:102DD000FEF750FB01280FD11E20FEF749FA2021F3
:102DE0002846FEF747FB012806D120212846FEF79A
:102DF00041FB0128F9D0E770BDE8F0812021284689
:102E0000FEF738FB0128F7D11E20FEF731FA20210A
:102E10002846FEF72FFB0128EED120212846FEF799
:102E200029FB0128F9D0E670E6E700000000002049
:102E300000080140FEB500241148009401940F4998
:102E400002940160891581600125057304750226CD
:102E500006614FF460214460C161FDF73FFF03202C
:102E60000094CDE9015069460548FDF7B5FECDE96E
:102E7000005669460248FDF7AFFEFEBD0024014042
:102E8000100200202DE9F04385B000242948009469
:102E9000019402940394816941F010018161816978
:102EA00001F010010491816941F020018161816983
:102EB00001F020010491816941F00401816181697F
:102EC00001F004010491816941F008018161806988
:102ED000DFF8648000F008004FF4604504900022A1
:102EE00029464046FEF7CBFADFF850904CF2201707
:102EF000002239464846FEF7C2FA0095022601250F
:102F00000396CDE9015469464046FEF7C3F93020E7
:102F1000CDE9000469460A480294FEF7BBF9009720
:102F20000396CDE9015469464846FEF7B3F905B06A
:102F3000BDE8F0830010024000100140000C014089
:102F40000008014010B596B000240F94109411941D
:102F5000129413941C2168461494FDF7FAF820216A
:102F600007A8FDF7F6F82248204901600821C0E9CA
:102F7000011441F63F71C0E9031444618461FFF715
:102F8000A4F94FF480500F900FA91948FFF7F1F9F9
:102F90001748FFF79CFB139413A915481494FFF7E7
:102FA00073F96020CDE9000402940394049405941D
:102FB000002269460E480694FFF721FB0422694669
:102FC0000B48FFF71CFB0794089409944FF400503A
:102FD0000A94CDE90B4007A905480E94FFF72AF99A
:102FE0000348FFF7E5FA16B010BD0000002C0140C1
:102FF0009402002010B586B000241148009401947A
:103000000294039404944FF08041059401600221DE
:10301000C0E9011440F2AF41C0E903148461FFF735
:1030200054F94FF48050009069460548FFF7A1F924
:10303000049404A902480594FFF726F906B010BDD0
:10304000D4020020FEE7000070B5094D04460122BD
:1030500091032846FEF713FA0122D1032846FEF712
:103060000EFA044900200860081D046070BD0000CD
:10307000000C0140342C014070B5094D044601227A
:1030800091032846FEF7FBF90122D1032846FEF7FB
:10309000F6F90448046003490020091D086070BD6A
:1030A000000C0140342C014010B5094C00224FF4B3
:1030B00080412046FEF7E3F900224FF4004120460C
:1030C000FEF7DDF9034900200860091D086010BD06
:1030D000000C0140342C01407047704738B5114D49
:1030E0000024224620212846FEF7C9F93220FEF7A7
:1030F000BFF8012220212846FEF7C1F94FF47A706B
:10310000FEF7B6F800200849034602460090A1F5F4
:103110008A7000F049F80549C87100B901242046B9
:1031200038BD0000000C01405403002000000020C6
:103130002DE9F041194E00254FF480742A462146AE
:103140003046FEF79CF93220FEF792F80122214624
:103150003046FEF794F9124800F07AFCD0B1002115
:103160000F4800F0FDFF0F4E002442F234170C48C8
:1031700000F025FFF082B84203D8094801F06BF84F
:1031800020B1074801F026F8002503E00125641C62
:10319000022CECDB2846BDE8F0810000000C014069
:1031A000E0010020000000202DE9FF4706467520C1
:1031B000DDF830908DF8080042F0D00598460F46B3
:1031C0000D700523022229463046FEF71DFA40BB4A
:1031D0004FF47A74012302AA294630460094FEF780
:1031E000C5FBF0B9012303AA294630460094FEF737
:1031F000B7FAB0B903E0032004B0BDE8F0879DF84A
:103200000C006828F7D16B208DF8040000208DF8A1
:103210000500022301AA294630460094FEF7A6FBCA
:1032200008B10120E8E707223946304600F0AAF845
:1032300042463946304600F05FF84A463946304645
:1032400000F0B4F80020D7E72DE9FF410C463B2100
:103250008DF80C10277806464FF47A75012303AADF
:10326000394630460095FEF781FB0028F6D106234B
:1032700001AA394630460095FEF772FA0028F6D1C9
:10328000BDF8040040BAA081BDF8060040BAE08154
:10329000BDF8080040BA208204B00020BDE8F081EB
:1032A0002DE9FF410C4643218DF80C102778064686
:1032B0004FF47A75012303AA394630460095FEF78C
:1032C00055FB0028F6D1062301AA39463046009561
:1032D000FEF746FA0028F6D1BDF8040040BA608235
:1032E000BDF8060040BAA082BDF8080040BAE082EE
:1032F00004B00020BDE8F0812DE9FE43074691F8B7
:1033000000801C2016460D468DF808004FF47A7494
:10331000012302AA414638460094FEF727FB002805
:10332000F6D1012301AA414638460094FEF718FA67
:103330000028F6D19DF8040000F0E70040EAC6003E
:103340008DF80400012301AA414638460094FEF797
:103350000DFB0028F6D136B1012E07D0022E0BD07E
:10336000032E06D10BE04FF0625001E04FF06450A5
:10337000A8600020BDE8FE834FF06650F8E74FF0EC
:103380006850F5E77CB504460D7819208DF80400E7
:103390008DF805204FF47A76022301AA29462046AB
:1033A0000096FEF7E3FA0028F6D17CBD2DE9FE4336
:1033B000074691F800801B2016460D468DF8080040
:1033C0004FF47A74012302AA414638460094FEF76E
:1033D000CDFA0028F6D1012301AA414638460094CF
:1033E000FEF7BEF90028F6D19DF8040000F0E700D2
:1033F00040EAC6008DF80400012301AA4146384680
:103400000094FEF7B3FA0028F6D136B1012E06D0AB
:10341000022E09D0032E04D108E0054800E005483B
:1034200068600020BDE8FE830348F9E70348F7E73A
:103430002D23FA3B2D237A3C90C1F93C90C1793D74
:103440007047FEF757BB30B593B028216846FCF7AC
:1034500080FE14210AA8FCF77CFE002401200F94B2
:1034600010941194010412948DE8130004904FF409
:10347000E010CDE90810022507956846FEF734FDF7
:103480000F20CDE90A056802CDE90C4002210AA807
:103490000E94FEF73DFCA80311900F950FA8FEF7C0
:1034A000C1FB13B030BD00000D48016841F00101BF
:1034B000016041680B4A1140416001680A4A1140AD
:1034C0000160016821F480210160416821F4FE015E
:1034D00041604FF41F0181600449C00308607047D8
:1034E000001002400000FFF8FFFFF6FE08ED00E0CC
:1034F0000148FEF7AABF0000D4020020F0B5026820
:10350000164B174C174D4FF08047984205D0B842E4
:1035100003D0A04201D0A84203D122F070064A682D
:103520003243984205D0B84203D0A04201D0A8420D
:1035300003D122F44074CA6822434C6922F080020D
:10354000224302608A68C2620A688262984201D19C
:103550000969016301214161F0BD0000002C0140B7
:10356000000400400008004010B501F01F030121D5
:10357000046A99408C430462016A9A4011430162D3
:1035800010BD10B5846842EA032224F47F440A4344
:103590002243826010BD826822F070020A4342F02A
:1035A000070181607047000030B5026A22F0010215
:1035B0000262026A4368846924F073050C682C4334
:1035C00022F002058A682A430A4DA8420BD122F054
:1035D0000805CA6823F440732A434D6922F00402A7
:1035E0001D438B692B4343608461496841630262D8
:1035F00030BD0000002C014030B5026A22F01002FC
:103600000262026A436884690D6824F4E64444EA6D
:1036100005248D6822F0200242EA05120B4DA842D3
:103620000ED1CD6822F0800242EA05124D6923F4E2
:10363000406343EA85038D6922F0400243EA850333
:103640004360846149688163026230BD002C01409F
:1036500030B5026A22F480720262036A4268C46969
:1036600023F4007324F073050C682C438D6843EA3F
:1036700005230C4DA8420ED1CD6823F4006343EA24
:1036800005234D6922F4405242EA05128D6923F464
:10369000806342EA05124260C4614968C163036203
:1036A00030BD0000002C014030B5026A22F4805287
:1036B0000262046A4268C3690D6823F4E64343EA80
:1036C00005238D6824F4005444EA0534064DA842CD
:1036D00004D14D6922F4804242EA85124260C361FE
:1036E00049680164046230BD002C014010B5036AD2
:1036F000046A24F001040462846924F0F00444EABA
:10370000021423F00A020A438461026210BD10B55C
:10371000036A23F0100303628369046A23F470438D
:1037200043EA023224F0A00343EA011182610162FC
:1037300010BD00002DE9F041044600680169E2680F
:1037400021F44051114301612169A0680843616976
:1037500008432168CA6841F20C639A430243CA6075
:1037600020684169A26921F44071114341611E49F9
:10377000206864253226884202D1FEF76FFB01E003
:10378000FEF75CFB00EBC00101EB001160686FF01D
:1037900018078000B1FBF0F2B2FBF5F2B1FBF0F3D9
:1037A0007A4303EB8202B1FBF0F306EB0212B2FBA9
:1037B000F5F2B3FBF5F302F0F00202EB0312B1FBFA
:1037C000F0F3B1FBF0F0B0FBF5F0784303EB8000D1
:1037D00006EB0010B0FBF5F0216800F00F0010447C
:1037E0008860BDE8F081000000380140FEE710B5B8
:1037F0000446806840B1FDF747FE2169401AA16880
:10380000884201D9012010BD002010BDC1B2000ABC
:103810008140491C88B270470021002809D0401E11
:1038200002E04008491C89B2020AFAD161F31F2064
:1038300080B2704730B589B0054640F636346946E7
:1038400000F02DF802AA6946284600F03CF89DF8E1
:10385000000010B1059C04F684549DF8020028B1C4
:10386000059804EB400404F2645406E09DF801005E
:1038700018B1059804F5257404449DF8030018B1A7
:10388000069804F5257404449DF8040018B10798BF
:1038900004F226240444AC6109B0204630BD10B5C2
:1038A0000C46012100F0ACFBC0F300112170C0F305
:1038B000C001A170C0F380016170C0F38011E1709C
:1038C000C009207110BD70B50D4614460646002192
:1038D00000F0AFF820804621304600F091FB401CFC
:1038E000A080217800F097FCE0605121304600F084
:1038F000A7FBFFF78BFFE080217800F08CFC2061B4
:103900000121304600F095F860807121304600F0CA
:1039100097FBFFF77BFF2081E97811B1E188401A1E
:103920002081A178208900F076FC606170BD70B5BF
:1039300014460D4606460122802100F0B1FC01220A
:10394000FF21304600F0ACFC00221146304600F06A
:10395000A7FC0622FF21304600F0A2FC832130465E
:1039600000F04EFB40F004028321304600F098FC4A
:103970000722FF21304600F093FC012281213046CE
:1039800000F08EFC01228021304600F089FC6B2281
:103990009421304600F084FC00228321304600F060
:1039A0007FFCFDF771FD306105E03046FFF71FFF3A
:1039B00008B1002070BD8321304600F021FB0028B3
:1039C000F3D001228321304600F06AFC9221304678
:1039D00000F016FB00F07F012970C0092070002262
:1039E0008121304600F05CFC0622FF21304600F0C9
:1039F00057FC8321304600F003FB20F004028321B2
:103A0000304600F04DFC0122FF21304600F048FC1A
:103A100001220021304600F043FC0022FF21304605
:103A200000F03EFC00228021304600F039FC0120ED
:103A300070BD10B519B1012903D0FF2010BD502170
:103A400000E0702100F0DCFA401C4006000E10BDC2
:103A50002DE9FF410446407948B18921204600F014
:103A6000CFFA40F001028921204600F019FC002223
:103A70008821204600F014FC01228021204600F01D
:103A80000FFC0122FF21204600F00AFC0022114613
:103A9000204600F005FC9121204600F0B1FA207587
:103AA00001220021204600F0FBFB0022FF212046DE
:103AB00000F0F6FB00228021204600F0F1FB60219F
:103AC000204600F09DFA40F012026021204600F0EE
:103AD000E7FB4FF07A51204600F028FBFF2201213E
:103AE000204600F0DDFB03AA02A92046FFF71FFFD6
:103AF00000287DD006236A46B021204600F03FFA18
:103B00000122FF21204600F0CBFB00224F2120465E
:103B100000F0C6FB2C224E21204600F0C1FB002203
:103B2000FF21204600F0BCFBB422B621204600F065
:103B3000B7FB9DF80C0008B10C2500E00025002023
:103B40009DF80870014601266A46A94201D3B84291
:103B50000CD102EBD10301F0070E93F800C006FA76
:103B60000EFE2CEA0E0C83F800C00AE002EBD10333
:103B700001F0070C1B7823FA0CF3DB0701D0401C83
:103B8000C0B2491CC9B23029DFD30623B021204678
:103B900000F066FB0122FF21204600F081FB00229D
:103BA0001146204600F07CFB0022FF21204600F059
:103BB00077FB00220921204600F072FB0022102131
:103BC000204600F06DFB00221121204600F068FB2A
:103BD00001222421204600F063FBFF2225212046FC
:103BE00000F05EFB00227521204600F059FB00E04A
:103BF0009FE10122FF21204600F052FB2C224E21A2
:103C0000204600F04DFB00224821204600F048FBF2
:103C100020223021204600F043FB0022FF212046D5
:103C200000F03EFB09223021204600F039FB002243
:103C30005421204600F034FB04223121204600F0BC
:103C40002FFB03223221204600F02AFB8322402151
:103C5000204600F025FB25224621204600F020FBCF
:103C600000226021204600F01BFB00222721204675
:103C700000F016FB06225021204600F011FB002226
:103C80005121204600F00CFB96225221204600F0E4
:103C900007FB08225621204600F002FB3022572164
:103CA000204600F0FDFA00226121204600F0F8FADB
:103CB00000226221204600F0F3FA0022642120460F
:103CC00000F0EEFA00226521204600F0E9FAA02279
:103CD0006621204600F0E4FA0122FF21204600F090
:103CE000DFFA32222221204600F0DAFA142247219C
:103CF000204600F0D5FAFF224921204600F0D0FAF4
:103D000000224A21204600F0CBFA0022FF21204663
:103D100000F0C6FA0A227A21204600F0C1FA0022F9
:103D20007B21204600F0BCFA21227821204600F0B9
:103D3000B7FA0122FF21204600F0B2FA34222321F3
:103D4000204600F0ADFA00224221204600F0A8FAF9
:103D5000FF224421204600F0A3FA262245212046D6
:103D600000F09EFA05224621204600F099FA4022F2
:103D70001146204600F094FA06220E21204600F05B
:103D80008FFA1A222021204600F08AFA402243218D
:103D9000204600F085FA0022FF21204600F080FA3C
:103DA00003223421204600F07BFA442235212046AC
:103DB00000F076FA0122FF21204600F071FA042279
:103DC0003121204600F06CFA09224B21204600F0F8
:103DD00067FA05224C21204600F062FA04224D21A8
:103DE000204600F05DFA0022FF21204600F058FA3C
:103DF00000224421204600F053FA2022452120468B
:103E000000F04EFA08224721204600F049FA282205
:103E10004821204600F044FA00226721204600F0A5
:103E20003FFA04227021204600F03AFA0122712163
:103E3000204600F035FAFE227221204600F030FACA
:103E400000227621204600F02BFA0022772120461E
:103E500000F026FA0122FF21204600F021FA01227B
:103E60000D21204600F01CFA0022FF21204600F020
:103E700017FA01228021204600F012FAF8220121CF
:103E8000204600F00DFA0122FF21204600F008FA3A
:103E900001228E21204600F003FA01220021204653
:103EA00000F0FEF90022FF21204600F0F9F900227F
:103EB0008021204600F0F4F904220A21204600F077
:103EC000EFF98421204600F09BF820F010028421B5
:103ED000204600F0E5F901220B21204600F0E0F930
:103EE0002046FFF7A7FCA061E8220121204600F050
:103EF000D7F92046A16900F0C7F8012211462046F3
:103F000000F0CEF94021204600F016F8002810D02D
:103F100002220121204600F0C3F90021204600F0D2
:103F20000BF8002805D0E8220121204600F0B8F95E
:103F3000012004B0BDE8F08110B541F00102044653
:103F4000002100F0ADF9FDF79FFA206105E0204661
:103F5000FFF74DFC08B1002010BD1321204600F0F2
:103F60004FF84007F3D001220B21204600F098F9CA
:103F700000221146204600F093F9012010BDFFB544
:103F800081B04FF47A7504460095C0884FF6FF71F2
:103F90001E46174601EA4001012302AA2068FDF7E8
:103FA000E5FC0095E088012101EB400081B2334639
:103FB0003A462068FDF7D4FB207105B0F0BD70B51E
:103FC0000446FDF761FA206108E02046FFF70FFC88
:103FD00020B1012020734FF6FF7070BD13212046E1
:103FE00000F00EF84007F0D01E21204600F028F81F
:103FF000054601220B21204600F052F9284670BDEB
:1040000033B583B04FF47A7504460095C0884FF6F7
:10401000FF7101EA4001012304AA2068FDF7A6FC14
:104020000095E088012101EB400081B2012301AA43
:104030002068FDF795FB20719DF8040005B030BDA8
:1040400033B583B04FF47A7504460095C0884FF6B7
:10405000FF7101EA4001012304AA2068FDF786FCF4
:104060000095E088012101EB400081B2022301AA02
:104070002068FDF775FB20719DF8040001029DF892
:10408000050005B0084330BD70B5064644F6206013
:1040900088B00D4681422ED340F6E804694630468A
:1040A000FFF7FDFB02AA69463046FFF70CFC9DF8BE
:1040B000000010B1059C04F636349DF8020028B1CA
:1040C000059804EB400404F2645406E09DF80100F6
:1040D00018B1059804F5257404449DF8030018B13F
:1040E000069804F5257404449DF80400E0B104F238
:1040F0002624AC4202D9002008B070BDBDF80A10D9
:10410000281BC9B200F097F89DF8031080B219B1CE
:10411000BDF80E10084480B2FFF77EFB0246712105
:10412000304600F0D2F8B5610120E5E710B50A4647
:10413000044611F1FF4F02D20848824201DD0020FF
:1041400010BD07211046FCF7D7F8FCF79EFA82B2A3
:104150004421204600F0B9F8012010BDB8FEFF430D
:1041600070B50C4605460122802100F099F8012225
:10417000FF21284600F094F800221146284600F05E
:104180008FF82A7D9121284600F08AF8012200212B
:10419000284600F085F80022FF21284600F080F82C
:1041A00000228021284600F07BF88CB1F8212846B7
:1041B000FFF746FF00B1444322460421284600F0A1
:1041C0009CF804222846BDE87040002100F068B841
:1041D0000222F7E710B504460122002100F060F842
:1041E0000122FF21204600F05BF800221146204604
:1041F00000F056F800229121204600F051F80122EB
:104200000021204600F04CF820460022BDE8104076
:10421000FF2100F045B843F62F2251434FF4FA72C4
:1042200002EB01215200B1FBF2F1484300EB5100D7
:10423000B0FBF2F0704743F62F2251434FF4FA726D
:1042400002EB01215200B1FBF2F1504300EB5100AF
:10425000B0FBF1F07047017B002202730846704703
:10426000FFB581B04FF47A7504460095C0884FF6CB
:10427000FF711E46174601EA4001012302AA206889
:10428000FDF774FB0095E088012101EB400081B24D
:1042900033463A462068FDF763FA207105B0F0BD59
:1042A0001CB504468DF804104FF47A708DF8052083
:1042B0000090E0884FF6FF7101EA4001022301AA55
:1042C0002068FDF753FB20711CBD1CB504468DF81A
:1042D0000410100A8DF805004FF47A708DF806204E
:1042E0000090E0884FF6FF7101EA4001022301AA25
:1042F0002068FDF73BFB20711CBD3EB504468DF8E0
:104300000410100E8DF80500100C8DF80600100A30
:104310008DF807004FF47A708DF808200090E0883F
:104320004FF6FF7101EA4001052301AA2068FDF75D
:104330001DFB20713EBD490050EAC12018BF04207A
:104340004A0D18BF40F0010040F2FF72B2EB515F1E
:1043500008BF40F00200012808BF05207047090788
:10436000090E002804DB00F1E02080F800147047FB
:1043700000F00F0000F1E02080F8141D70472DE9D7
:10438000F0414F1E00EBC7010446D1E9000115467C
:104390001E4637F006020DD02A463346FCF75FF87A
:1043A0007F1E04EBC703D3E90023FBF7B1FF37F00F
:1043B0000602F1D1022F25D0042F13D0062F18BFEB
:1043C000BDE8F0812A463346FCF749F8D4E90A23D0
:1043D000FBF79EFF2A463346FCF741F8D4E9082351
:1043E000FBF796FF2A463346FCF739F8D4E9062353
:1043F000FBF78EFF2A463346FCF731F8D4E9042355
:10440000FBF786FF2A463346FCF729F8D4E9022356
:10441000FBF77EFF2A463346FCF721F8D4E9002358
:10442000BDE8F041FBF774BF0122FCF7F9B8FBF7D8
:104430006FBF0000024A00201107FCF7F1B800002E
:1044400001FDFFFF02E008C8121F08C1002AFAD1CF
:1044500070477047002001E001C1121F002AFBD104
:104460007047000001490860704700000C020020FE
:104470002DE9F84F04460D4621F0004000917349A4
:10448000814211DC7249884201DC06D12CB1204600
:104490002946BDE8F84FFFF7C7BF6E48002DCCBFD7
:1044A0006D496E49BDE8F88F6D49814211DD6D4956
:1044B0008142D8BF4FF0FF366DDD20462946FFF719
:1044C0003AFF042808BFFFF7B5FF20462946BDE89C
:1044D000F88F6549654F25F00045814233DD644919
:1044E000814219DD002632464FF08043204629469E
:1044F000FBF70EFF80468A46012220462946FCF73C
:104500008FF800223B46FBF7A4FF42465346FCF7D8
:1045100018F804460D463EE001260022BA463B4606
:1045200020462946FBF7F4FE80460F4600225346FC
:1045300020462946FBF78DFF42463B46FCF701F833
:1045400004460D4627E04B4981421BDDDFF828A1D8
:1045500002260022534620462946FBF780FF002210
:104560003B46FBF7D5FE80460F46002253462046C9
:104570002946FBF76EFF42463B46FBF7E2FF044647
:104580000D4608E0032622462B4600203B49FBF758
:10459000D8FF04460D4622462B4610461946FBF727
:1045A0005EFF8B46824602460B46FBF758FF0746E6
:1045B0000246334888460B4606217844FFF7DFFE63
:1045C00052465B46FBF74BFF82462E488B463A46E7
:1045D000434605217844FFF7D2FE3A464346FBF7AF
:1045E0003EFF02460B46002E504659460CDAFBF7BA
:1045F0008FFE22462B46FBF732FF01B022462B46A8
:10460000BDE8F04FFBF728BFFBF782FE22462B46A2
:10461000FBF725FF1C4A7A4402EBC603D3E90023CB
:10462000FBF717FF22462B46FBF713FF174A7A4486
:1046300002EBC603D3E90023FBF70EFF009A002A22
:10464000B8BF81F00041BDE8F88F000000001044C1
:104650000000F07F182D4454FB21F93FFB21F9BFE6
:104660000000DC3F0000203E0000F33F0000F03F70
:104670000000E63F008003400000F83F0000F0BF6C
:104680000A0C0000C80B0000660B00002E0B000097
:104690002DE9F04D9446CCF1000423F000464CEA9D
:1046A0000404524F46EAD4749A46884621F00042E8
:1046B000BC4206D8454240EA050442EAD474BC42F2
:1046C00004D9BDE8F04D6246FFF7B1BEAAF14055EE
:1046D000A5F17F6555EA0C040BD0022404EAAA7404
:1046E000434DDFF810E144EAD87452EA000B04D0DD
:1046F0000CE0BDE8F04DFFF7BBBE002C14BF012C51
:10470000BDE8F08D022C30D0032C32D056EA0C0BD1
:104710000AD0BE4220D1BA4209D126F0804622F00A
:1047200080423346114617E000291ADB25E0DFF806
:10473000C8B0FB44002C04BFDBE90001BDE8F08DEC
:10474000012C02BFDBE9000181F00041BDE8F08DE2
:10475000022C0AD0032C0CD0BA4212D1B8F1000FAF
:104760000BDA23482549BDE8F08D28462449BDE8E9
:10477000F08D28467146BDE8F08D1D482149BDE801
:10478000F08D921B12153C2AC4BF19481D490EDC3E
:10479000BAF1000FBEBF12F13C0F0020014606DB4C
:1047A0006246FBF7CEFE21F00041FFF761FE002CD0
:1047B00008BFBDE8F08D012C04BF81F00041BDE8C9
:1047C000F08D114A114B022C07D0FBF742FE2A460E
:1047D000BDE8F04D0A4BFBF73CBEFBF73AFE2A461C
:1047E000BDE8F04D064BFBF737BE00000000F07F40
:1047F000182D4454FB2109C0C20A0000FB21F9BF57
:10480000FB210940FB21F93F075C143326A6A13C9C
:104810002DE9F04F89B0FDF775F9FEF714FEFEF7AC
:1048200031FBFD48416941F00101416140690022CD
:1048300000F00100009011460B20FDF7C1F90B209C
:10484000FDF7B0F9FEF7F6FAF548F44900250160E6
:10485000F449C0E901154FF4804BC0E9035B4561A1
:104860008561C5610562FCF715FEFEF76BFBEC4840
:10487000ED49D43001604FF4E131C0E901150C215C
:10488000C560C0E904518561C561FDF766FFFEF7AB
:10489000B1FBE3483038FCF7F5FA30B9E0480222C2
:1048A000E2493038FCF74EFB18B109B00020BDE8F2
:1048B000F08FDB4800215430FDF726FFD848042153
:1048C0005430FDF721FFDA4805600021001D01602A
:1048D000D3489430FDF73CFDFEF700FCD54C6070EA
:1048E000FEF726FC2146087044F6206104F5F070BE
:1048F000FFF7CAFB0020D04904F5C0760246C6E99E
:104900001401014604F5807A504604F18009C0E99B
:104910001C21CA4A0021C0E90012C94ACA4BC0E999
:104920001612C84AC0E918120A464946C1E90623C8
:10493000C64B0022C1E90823C54BC1E90223C54B80
:10494000C1E90423C54BC44AC0E910230022C0E9D1
:104950001422C34A8264C34BBB4A0020CAF84C30BD
:10496000C1E91A02B44AC1E91E0202460A67BE48FA
:10497000C9F87400B3490020C6E90E01BC49BB4820
:10498000C6E91201BC49BB48C6E9100120780028DD
:104990007ED0607800287CD001225103B748FCF714
:1049A0006EFDFEF7CFF9A1480830FFF708FB42F291
:1049B0001071A082884204D89C480830FFF74BFC55
:1049C00000B12570AE499648FEF76AFCAC4F3946F7
:1049D000788A2081B88A6081F88AA0819048FEF7A1
:1049E00033FCB889E081B7F90E002082B7F9107066
:1049F00080466782A069FBF73BFEA24AA24BFBF709
:104A00002EFDA561C4E9080108FB08F007FB0700BB
:104A1000FBF71DFE00F070FB80460F46B4F90E0058
:104A2000FBF715FE42463B46FFF732FE0022974B4E
:104A3000FBF715FD964A974BFBF783FDC4E90A0186
:104A400004910090B4F90A004042FBF700FE0022F6
:104A5000914BFBF776FDC4E9180107468846D4E977
:104A60000801FBF7A1FE019038464146FBF79CFE8A
:104A7000074604990098FBF797FE3946019AFEF71E
:104A800099F8FBF74EFEC4E91E018046039101E050
:104A90006FE178E1D4E91801D4E90823FBF7DFFCE2
:104AA0000091D4E91A230746FBF732FCC4E91A0146
:104AB00002910690684A794B40460399FBF7CFFC78
:104AC0000391D4E91C23804638460099FBF720FC6B
:104AD000734A744BFBF7C3FC4246039BFBF718FC7D
:104AE000C4E91C010022704B02990698FBF72CFECA
:104AF00006D3D4E91A0100226C4BFBF73DFE03D22A
:104B0000D4E91E01C4E91A014848D0E9001008445C
:104B1000FBF7AEFDDAE91E23FBF7A1FC4FF0FF32F5
:104B2000FBF77EFDC9E90001A078002873D00120C1
:104B30006571A071514FC103257100223846FCF701
:104B40009EFC012259463846FCF799FC4C4F002048
:104B50005437A7F1280800BF08EBC00207EBC003D9
:104B6000D2E90012C3E90012401C0528F4DBA08A38
:104B7000FBF77EFD4246C2E90001012007EBC003BE
:104B800002EBC00C53E90213CCE90013401C0528CA
:104B9000F4DBA5820027A08AFBF76AFD08EBC703B8
:104BA000D3E90023FBF7B4FBFBF7A2FD7F1CA08237
:104BB000052FF0DB80B20521B0FBF1F0A082C82800
:104BC00001D9C820A08280B2FBF752FDD6E9142398
:104BD000FBF742FC80460F46C6E90001D6E90E010C
:104BE00042463B46FBF73BFCC6E90601CDE9060120
:104BF000D6E9100142463B46FBF731FCD6E90C23CF
:104C0000FBF786FBC6E90A01CDE90201D6E90223DA
:104C1000404639464CE0C0E00010024000540040DD
:104C200040020020A086010000480040D80100207A
:104C3000342C0140000000200000594000002240B8
:104C400000001840000028400030814000E075401E
:104C50000058BB4000409F407B14AE47E17A643F60
:104C6000F168E388B5F8C43E008051409A9999995B
:104C70009999B93FFCA9F1D24D62503F0010014013
:104C8000540300202D431CEBE2360A3F00806640AF
:104C9000EA2E4454FB21094000606040E17AA43FC1
:104CA000B81E85EB51B8EE3F008056C000805640DC
:104CB000FBF7CFFBD6E91223FBF7D1FBC6E90801CE
:104CC000CDE90401DDE90601DDE90223FBF720FB64
:104CD000DDE90423FBF71CFBC6E904018C46DDE992
:104CE0000212C6E90C12C6E902874F460022C7E944
:104CF0000A0C61461346FBF73FFD4FF000027DD2E0
:104D0000FA49CAE91E21D7E90A01D7E9062321F0A9
:104D10000041FBF7FDFAD7E90423FBF72DFD1AD27A
:104D2000D7E90A2323F000400190D7E90401904617
:104D3000FBF795FB4246019BFBF703FCC7E90A0121
:104D400002460B46D7E91801FBF716FD03D2D7E957
:104D50000A01C7E91801D7E90A01D7E9062321F0BA
:104D6000004100BFFBF7D4FAFBF7A3FCFEF784F980
:104D70000CE600224FF40051DD48FCF780FBFEF703
:104D8000D7F9207002E600224FF40051D848FCF712
:104D900076FBFEF7A3F96070F8E5E07878B30120C0
:104DA0006071D34FA5710246C10325713846FCF7E7
:104DB00066FB002259463846FCF761FB5746D7E9A7
:104DC0001C01D9E90023FBF744FBC7E90201804637
:104DD0000B460191D7E910014246FBF740FBC7E9BA
:104DE000080105910890D7E912014246019BFBF7A3
:104DF00036FBD7E90E23FBF78BFA01E030E136E012
:104E0000C7E90C01CDE90310D7E904234046019915
:104E1000FBF71FFBD7E91423FBF721FBC7E90A01C6
:104E20000291DDE904210690039B0898FBF770FAD4
:104E3000029B069AFBF76CFAC7E9060102460B468D
:104E4000DDE90310C7E90E010199C7E90481D7E93B
:104E50000001FBF7FEFAC7E91A01D7E9182321F090
:104E60000041FBF789FC2AD2D7E9180132E06571CD
:104E7000A57101202071002051460346C1E90E00B2
:104E8000024648469A4FC0E918320022C6E90C2271
:104E9000CAF81020CAF81420C9F83820C9F83C20F4
:104EA000C6E902224FF400413846FCF7E8FA002236
:104EB00059463846FCF7E3FAFEF7F6F866E5D7E917
:104EC0001A01D7E9162321F00041FBF73DFC03D27C
:104ED000D7E91601C7E91A01D4E91C23D7E91A0159
:104EE000BA46FBF7B6FA4F468046C7E90C010B46B7
:104EF0000191D7E91A014246FBF7B1FAC7E912015D
:104F000005910890D7E91C014246019BFBF7A7FADF
:104F1000D7E91823FBF7FCF9C7E9160104900091C3
:104F2000D7E90E2340460199FBF793FAD7E91E23F0
:104F3000FBF795FAC7E91401CDE90201DDE9042187
:104F4000009B0898FBF7E4F9DDE90223FBF7E0F9A1
:104F5000C7E910018C46009A0499C7E91812019913
:104F60000022C7E90E81C7E90A0C61461346FBF728
:104F700003FC4FF0000235D25C49B846CAE91E2155
:104F8000D7E90A01D7E9062321F00041FBF7C0F970
:104F9000D8E90223FBF7F0FB1CD2D8E90A2020F065
:104FA000004300930346D8E902011746FBF757FA7E
:104FB0003A46009BFBF7C5FA02460B46C8E90A01D0
:104FC000D8E91801FBF7D8FB04D24046D0E90A1211
:104FD000C8E918124346D3E90A01D8E9062321F0AB
:104FE0000041BFE6D7E90A010023FBF7ADFBBFF4A0
:104FF000BFAE40480021CAE91E10D7E90A01D7E92F
:105000000823B84621F00041FBF782F9D8E90223D2
:10501000FBF7B2FB1CD2D8E90A2323F0004CCDF8F1
:1050200000C0D8E902011746FBF719FA3A46009B7F
:10503000FBF787FA02460B46C8E90A01D8E91801CE
:10504000FBF782FB04D24046D0E90A12C8E91812E5
:105050004346D3E90A01D8E9082321F000413DE0A5
:10506000D7E90A010023FBF76FFBC0D221480021DA
:10507000CAE91E10D7E90A01D7E90823B84621F08A
:105080000041FBF745F9D7E90423FBF775FB1CD278
:10509000D8E90A2020F0004300930346D8E9040130
:1050A0001746FBF7DCF93A46009BFBF74AFA024643
:1050B0000B46C8E90A01D8E91801FBF745FB04D201
:1050C0004046D0E90A12C8E918124346D3E90A104B
:1050D00020F00047D8E9082308463946FBF718F9BD
:1050E000FBF7E7FAFDF7B0FF50E400000000F03FE7
:1050F000001001400000F0BF2DE9F04106460F46C8
:10510000FBF723FC041E0D4618BF0120284320F0A6
:105110000040C0F17F6000F1E040C00F0ED0301CB5
:1051200018BF0120384320F00040C0F17F6000F13B
:10513000E040C00F04BF0120FFF794F92046294644
:10514000BDE8F0810000000000000000010203043F
:105150000607080900000000010203040000000027
:105160004FBB610567ACDD3F182D4454FB21E93F7F
:105170009BF681D20B73EF3F182D4454FB21F93F6E
:10518000E2652F227F2B7A3C075C143326A6813CF4
:10519000BDCBF07A8807703C075C143326A6913C9F
:1051A000C4EB98999999C9BF711623FEC671BCBF0B
:1051B0006D9A74AFF2B0B3BF9AFDDE522DDEADBF73
:1051C0002F6C6A2C44B4A2BF0D5555555555D53F8B
:1051D000FF8300922449C23F6E204CC5CD45B73FA6
:1051E000513DD0A0660DB13FEB0D76244B7BA93F1E
:1051F00011DA22E33AAD903F000000000000000009
:10520000205200080000002010020000100A0008D0
:1052100058520008100200200806000054440008FC
:1052200041F2011AFF0101180019FFFCA9F1D24D4A
:1052300062503FFA7E6ABC7493683FB81E85EB519A
:10524000B89E3F0199134002122013012903122036
:0852500003320182105324F423
:04000005080000ED02
:00000001FF
